:020000040800F2
:1000000068050020A5010008EB1E0008271D000858
:10001000E91E000829040008592500080000000016
:10002000000000000000000000000000992000080F
:100030006704000800000000ED1E00089B20000877
:10004000BF010008BF010008BF010008BF01000890
:10005000BF010008BF010008BF010008BF01000880
:10006000BF010008BF010008BF0100082D040008FF
:10007000BF010008BF010008BF010008BF01000860
:10008000BF010008BF010008BF010008BF01000850
:10009000BF010008BF010008BF010008BF01000840
:1000A000BF010008BF010008BF010008BF01000830
:1000B000BF0100080000000000000000BF010008B0
:1000C000BF010008BF010008BF010008BF01000810
:1000D000BF010008BF010008BF010008BF01000800
:1000E000BF010008BF010008000000000000000080
:1000F0000000000000000000000000000000000000
:1001000000000000BF01000800000000BF0100085F
:100110000000000000000000BF010008BF0100084F
:10012000BF010008BF010008BF010008BF010008AF
:10013000BF010008000000000000000000000000F7
:10014000BF010008BF010008BF0100080000000057
:10015000BF010008BF010008BF010008BF0100087F
:10016000BF010008BF010008BF0100080000000037
:10017000BF010008BF0100080000000000000000EF
:10018000BF010008BF010008BF010008DFF810D060
:1001900000F080F80048004799250008AFF3008080
:1001A000680500200648804706480047FEE7FEE74E
:1001B000FEE7FEE7FEE7FEE7FEE7FEE7FEE7FEE717
:1001C0004D2100088D0100082DE9F05F0546002053
:1001D00092469B4688460646814640241BE02846B8
:1001E00041464746224600F044F853465A46C01A54
:1001F000914110D311461846224600F02BF82D1AD3
:1002000067EB01084F4622460120002100F022F84A
:1002100017EB00094E41201EA4F10104DFDC484623
:1002200031462A46434600F000B830BCBDE8C09FC6
:10023000D2B201E000F8012B491EFBD27047002228
:10024000F6E710B513460A4604461946FFF7F0FFD5
:10025000204610BD202A04DB203A00FA02F10020DB
:1002600070479140C2F1200320FA03F319439040F4
:100270007047202A04DB203A21FA02F0002170475F
:1002800021FA02F3D040C2F12002914008431946FE
:1002900070470000064C074D06E0E06840F001039F
:1002A00094E8070098471034AC42F6D3FFF772FF8A
:1002B000702600089026000810B5846A616D11F060
:1002C000500F06D0616DC90625D5204600F011FB00
:1002D00010BD606D40F4007060652068016809071A
:1002E00016D501F02FFD78B12068C0688004002881
:1002F0000ADB606D20F480706065606DC00403D41B
:10030000606D40F001006065204600F0F0FA10BD1D
:10031000C0688007EBE7E16C496BBDE81040084717
:1003200010B5806A416D41F040014165816D41F039
:100330000401816500F0DDFA10BD10B5806A00F09F
:10034000D7FA10BD70B50446006881688268C1F3B1
:10035000400112F0010F28D039BB816801F00D0176
:10036000012914D18168124A1140891C81602168D9
:100370000320086000F024FE054612E000F020FE95
:10038000401B02280DD920688068C00709D0606D25
:1003900040F010006065A06D40F00100A0650120F4
:1003A00070BD20688068C007E8D1002070BD0000E3
:1003B000C0FFFF7F70B504460068816811F0010F2F
:1003C0002DD18168174A11421AD18168D54329403D
:1003D000491C816000F0F4FD06461BE0816811F0C5
:1003E000010F03D181682940491C816000F0E8FDBC
:1003F000801B02280ED920680068C043C00709D0BE
:10040000606D40F010006065A06D40F00100A065D7
:10041000012070BD20680168C943C907DED10020F2
:1004200070BD00003F000080FEE70000014800F0C2
:10043000DBBB00009C00002030B590F8444004F085
:100440001C050124AC40056C6C6004686360836823
:10045000102B036803D099600068C26030BD9A60B9
:100460000068C16030BD704772B6FEE7F8B500267F
:100470000446009690F850000D4601280BD001204C
:1004800084F850002046FFF75DFF0100606D04D046
:1004900040F010002BE00220F8BD20F4885040F01E
:1004A0000200606520688268134B1A4005F08043A3
:1004B0001A4342F0004282604FF4912320680EE01C
:1004C000009A521C00929A4209D3606D20F00200FB
:1004D00040F01000606584F850600120F8BD82682B
:1004E000D20FEDD1606D20F0020040F00100606598
:1004F00084F850600846F8BDC0FFFF3F2DE9F84F73
:1005000000270446009790F85000DFF8B0930D469E
:10051000B846012811D0012684F85060206801F007
:100520000DFC60B1606D40F0200060655FF0010778
:1005300084F85080384600F0D7B90220FBE769689C
:100540000C20052912D8022907D0032907D0042935
:1005500007D0052907D0062107E0686006E01221D0
:1005600003E0182101E04FF480716960D5E90021B2
:10057000236800EA91101844036B01F01F014FF04B
:100580001F0C0CFA01FCC2F3846223EA0C038A40BC
:1005900013430363206801F0D1FB8246206801F019
:1005A000C9FB5AEA00001DD1AA682968206801F039
:1005B000D1FB20686969C268C2F3C1025200914050
:1005C0002A69042A0FD000EB82002B68026EDFF844
:1005D000F0C203F0F84302EA0C020B431A4342F064
:1005E0000041016672E0002101F09EFB400320689B
:1005F0004FF0000172D001F097FB90FAA0F0B0FA32
:1006000080F1286842036ED090FAA0F0B0FA80F032
:10061000814204D100221146206801F0AAFB012189
:10062000206801F081FB400320684FF001015DD09C
:1006300001F07AFB90FAA0F0B0FA80F1286842034A
:1006400059D090FAA0F0B0FA80F0814204D1002293
:100650000121206801F08DFB0221206801F064FB7C
:10066000400320684FF0020148D001F05DFB90FA92
:10067000A0F0B0FA80F12868420344D090FAA0F0CC
:10068000B0FA80F0814204D100220221206801F0FA
:1006900070FB0321206801F047FB400320684FF006
:1006A000030133D001F040FB90FAA0F0B0FA80F1E2
:1006B000286842032FD090FAA0F0B0FA80F081426F
:1006C00004D100220321206801F053FB20688168D7
:1006D00011F0010F22D0ACE000E004E001F024FBB7
:1006E000C0F384618DE7C0F3846091E701F01CFBE7
:1006F000C0F38461A2E7C0F38460A6E701F014FBB5
:10070000C0F38461B7E7C0F38460BBE701F00CFB82
:10071000C0F38461CCE7C0F38460D0E72A7B29680A
:1007200050F8B03FC1F3120C23EA0C0302F0180C8E
:10073000644A22FA0CF20A4013430360E96849450F
:1007400077D1286841031CD090FAA0F1B1FA81F169
:10075000491C01F01F0109294FEA403132D8002914
:1007600012D000BF90FAA0F1B1FA81F101F10101BC
:1007700001F01F0106FA01F609D100BFC0F3846140
:1007800009E0C0F38461E3E7C0F38461EEE790FA27
:10079000A0F1B1FA81F101F1010101F01F0146EA76
:1007A000816102D1C0F3846003E090FAA0F0B0FA56
:1007B00080F000F1010000F01F0000EB400041EA72
:1007C000005132E000290ED090FAA0F1B1FA81F187
:1007D00001F1010101F01F0106FA01F606D100BF87
:1007E000C0F3846106E0C0F38461F1E790FAA0F100
:1007F000B1FA81F101F1010101F01F0146EA8161C5
:1008000002D1C0F3846003E090FAA0F0B0FA80F067
:1008100000F1010000F01F002B4A00EB400002EB4A
:10082000005041EA000141F00071AA68206801F01F
:1008300091FA26482A6802423FF47AAE2448816839
:10084000244D254B01F0E071AA421BD10D0219D4B1
:1008500022689A427FF46CAE826841F4000122F073
:10086000E0720A4382601D481D490068B0FBF1F048
:10087000401C00EB4000800000E0401E009000287B
:10088000FBD155E6174DAA4207D1CD0105D4226808
:100890009A42F6D141F080710AE06FF00045EA42D9
:1008A000EFD14A02EDD422689A42EAD141F48001A4
:1008B000826822F0E0720A43826039E600007F40DD
:1008C00000F0FF03FFFF0700000020FE000008808B
:1008D00000030450000052C7000004501400002020
:1008E000400D0300000084CB18BCBDE8E08F7047CA
:1008F00070477047F8B54FF0000504002E4600958C
:1009000002D0606D10B107E00120F8BD204600F074
:10091000C9F8A66584F8506020688168C1F3407109
:1009200019B18168574A1140816020688168C1F31C
:10093000007189B98168544A114041F08051816049
:10094000524853490068B0FBF1F04000801C00E0C1
:10095000401E00900028FBD120688168C1F300711F
:1009600041B9616D41F010016165A16D41F0010176
:10097000A165012501F0E2F9616DC90600D430B12D
:10098000606D40F01000606501252846F8BD606D7F
:1009900020F4807040F0020060652068806810F0EC
:1009A000010F0BD13B48806810F0010F06D13A4887
:1009B0006168826822F47C120A438260E168606B9D
:1009C000627E0843A16841EA4231084394F820104E
:1009D00040EA0140012904D1A18C304A02EB414197
:1009E0000843A16A29B101F47071E26A014342EA45
:1009F00001002168CA682A4B1A400243CA60206875
:100A000001F09CF90646206801F094F9304315D1B5
:100A1000207E94F83010800340EA41002168CA68C3
:100A200044F202039A430243CA6094F83800012852
:100A30000CD02068016921F00101016120690128C1
:100A40002068016B21F00F0111D013E0D4E90F01F0
:100A50000843D4E911121143084321680A6940F29E
:100A6000FC739A43104340F001000861E6E7E26935
:100A7000521E11430163606D20F0020040F001003E
:100A8000606582E7C0FFFF5FC0FFFF7F14000020AA
:100A9000400D030000000450000304500000FEFF5E
:100AA00007C0F0FF70B586B0064614216846FFF710
:100AB000C6FB1C493068884232D11B49C86C40F4DF
:100AC0000050C864C86C00F400500590C86C40F039
:100AD0000100C864C86C002500F0010005900120E9
:100AE00000900B20CDE9010569464FF0904000F0E1
:100AF00083F90F4C0D48C4E900058020A560C4E9C6
:100B00000350800060618000A0612020C4E90705D7
:100B1000204600F0C7F808B1FFF7A6FCF464A6620F
:100B200006B070BD000004500010024008000240F2
:100B30009C00002070B5044615460E46006801F082
:100B4000FDF8E0BB94F85000012842D0012084F861
:100B500050002046FFF72EFC002110B184F8501001
:100B600070BD606D40F60162904340F48070606536
:100B7000606DC00404D5A06D20F00600A06500E003
:100B8000A165E26C1448D062E26C14481063E26C18
:100B90001348506322681C20106084F850102068AD
:100BA000416841F0100141602068C16841F00101D5
:100BB000C16021682B4632464031E06C00E008E01D
:100BC00000F0D0F821688A68064B1A40121D8A602E
:100BD00070BD022070BD0000B90200083B03000890
:100BE00021030008C0FFFF7FF0B4016C0C680168AE
:100BF0000D6890F8442002F01C06042202FA06F365
:100C0000234211D06B070FD50B689B0603D40B68EA
:100C100023F004030B6090F8441001F01C018A409B
:100C2000016C4A60016B1DE0022303FA06F72742BC
:100C30004FF0000C4FF0010218D0AF0716D50C682A
:100C4000A40605D40C6824F00A040C6080F8252062
:100C500090F8441001F01C018B40016C4B6080F84F
:100C600024C0C16A00291AD0F0BC08470823B34049
:100C7000234214D02B0712D50B6823F00E030B6010
:100C800090F84410036C01F01C0102FA01F1596064
:100C9000C26380F8252080F824C0416BE2E7F0BCF5
:100CA0007047000070B568B12B4C036814212B4AC3
:100CB000A34209D22A4C1C44B4FBF1F18900C0E9DB
:100CC00010210BE0012070BD234C64421C44B4FB96
:100CD000F1F189004164204908390164022180F85A
:100CE00025101C6847F6F0718C43D0E902152943A2
:100CF000D0E904563543294385692943C569294309
:100D0000056A2943214319608168B1F5804F19D0E4
:100D1000036C0F21934202D152F8A83F02E00E4A21
:100D2000A032136890F8444004F01C04A1408B43A7
:100D3000136090F84430416803F01C039940136835
:100D4000194311600021C163012280F8252080F839
:100D50002410084670BD0000080402400000024054
:100D6000F8FFFDBF70B5044690F824000025012867
:100D70000CD0012084F8240094F825600020012E76
:100D800006D084F824000225284670BD022070BDDC
:100D9000022684F82560E0632068066826F00106D4
:100DA00006602046FFF748FB206B0028206801689A
:100DB00002D041F00E0106E021F00401016020683C
:100DC000016841F00A0101602068016841F00101F9
:100DD0000160D9E770B5044600F0F2F80546601CE2
:100DE00002D004480078044400F0EAF8401BA04216
:100DF000FAD370BD080000202DE9FC4FDFF894A164
:100E0000002301250AF1040B03244FF00F0C0BF112
:100E1000040EB8E005FA03F632406FD04F68012F98
:100E200005D0022F03D0112F01D0122F17D1D0F8E7
:100E300008905F0004FA07F829EA08090097D1F83A
:100E40000C8008FA07F848EA0908C0F808804768E3
:100E5000B7430E79C6F300169E403E434660C6680F
:100E60004FEA430804FA08F7BE4301978F6807FA70
:100E700008F73743C7604E68022E01D0122E13D1F7
:100E8000DE0800EB86060096366A5F07FF0E0CFA56
:100E900007F926EA0906D1F8109009FA07F949EA94
:100EA0000609009EC6F820900668019FBE430F7990
:100EB00007F0030707FA08F7374307604E68F600A4
:100EC00060D5354E376E47F001073766366E23F032
:100ED000030706F001060096304E3E44B146B66860
:100EE0009F074FEA17780CFA08F7BE43B0F1904F0E
:100EF00005D02B4FB84204D1012712E042E0002771
:100F00000FE0284FB84201D102270AE0264FB8422D
:100F100001D1032705E0254FB84201D1042700E0A5
:100F2000072707FA08F73743C9F80870DAF80060AE
:100F30005746D1F8048096435FEAC83800D5164377
:100F40003E60DBF800605F46D1F8048096435FEABC
:100F5000883800D516433E60DEF800607746D1F849
:100F6000048096435FEAC82800D516433E60094FC7
:100F70000C373E68D1F8048096435FEA882800D594
:100F800016433E605B1C0A6832FA03F67FF442AFF8
:100F900000F00EB8000401400010024000000140C3
:100FA0000004004800080048000C004800100048F9
:100FB0001CBCBDE8E08F0AB1816170478162704757
:100FC00001488068704700000800002002488168DE
:100FD00002781144816070470800002010B5002499
:100FE000032000F063F8002000F008F808B10124A5
:100FF00001E000F025F8204610BD000070B50E4E4F
:1010000005460024307898B14FF47A71B1FBF0F0C6
:101010000A490968B1FBF0F000F0B0FD40B9102DAD
:1010200006D200222946501E00F020F8756000E02C
:101030000124204670BD000008000020140000209C
:10104000094808B5016E41F001010166016E01F029
:1010500001010091816D41F080518165806D00F04A
:101060008050009008BD000000100240F0B40E4B0C
:101070001B680C46C3F30223C3F10705042D00D9F6
:101080000425191D072901D2002300E0DB1E0126DB
:1010900006FA05F1491E214099409E40761E1640F1
:1010A0003143F0BC01F059BA0CED00E0064900F004
:1010B000070208684FF6FF03184040EA0220034A7F
:1010C00010430860704700000CED00E00000FA05D6
:1010D0001649B0F5007F0868C0F3412009D0022806
:1010E00005D0086820F4C06040F4806008600020EB
:1010F00070470128FBD0086820F4C06040F40070FD
:1011000008600B483222006850430A4AB0FBF2F0F4
:10111000401C00E0401E4A69520501D50028F9D163
:1011200048694005E3D50320704700000070004087
:101130001400002040420F000248006800F4C06024
:1011400070470000007000402DE9F84F044600276A
:101150000088A84D3E46000515D5606C60B1B0F51D
:10116000000F04D0B0F5400F2BD001270AE0E8684B
:1011700040F48030E86024E00021201D00F0B8FE3B
:1011800007001ED03E46206880033AD5A86D4FF078
:101190000008C00009D4A86D40F08050A865A86D73
:1011A0004FF0010800F080500090DFF84CA2DAF810
:1011B000001041F48071CAF80010FFF701FF81466A
:1011C00010E0D5F88800616C20F440000843C5F8B1
:1011D0008800D8E7FFF7F4FEA0EB0900022801D948
:1011E000032705E0DAF80000C005F3D5002F7DD015
:1011F0004FEA0706B8F1000F03D0A86D20F0805029
:10120000A8652078C00707D0D5F88800216A20F0AB
:1012100003000843C5F888002078800707D5D5F873
:101220008800616A20F00C000843C5F88800207827
:10123000400707D5D5F88800A16A20F030000843A0
:10124000C5F888002078800607D5D5F88800E16ABF
:1012500020F440600843C5F888002088800507D541
:10126000D5F88800E16B20F440200843C5F88800D9
:101270002088400507D5D5F88800216C20F440105F
:101280000843C5F888002078400607D5D5F88800BF
:10129000216B20F440500843C5F8880020780006F0
:1012A00007D5D5F88800616B20F440400843C5F8A5
:1012B00088002088C00507D5D5F88800A16B20F4E8
:1012C00040300843C5F8880020684FF000670003ED
:1012D0004FF0806850D5D5F88800A16C20F04060B0
:1012E0000843C5F88800A06CB84200E005E03BD197
:1012F000E86840F48010E8603EE0D5F8900010F413
:10130000407014D0A16D814211D0D5F89000D5F86D
:10131000901020F4407041F48031C5F89010D5F859
:10132000901021F48031C5F89010C5F89000C007E6
:1013300011D0FFF745FE074641F2883907E000BFAC
:10134000FFF73EFEC11B494501D9032652E7D5F8F8
:1013500090008007F4D5D5F89000A16D20F440707E
:101360000843C5F8900045E7404505D10121201DFF
:1013700000F0BEFD00B106462068400317D5D5F841
:101380008800E16C20F040600843C5F88800E06CFC
:10139000B84204D1E86840F48010E86007E04045B6
:1013A00005D10121201D00F0A3FD00B106462088D3
:1013B000400411D5D5F88800216D20F04050084335
:1013C000C5F88800206DB0F1805F05D10221201D95
:1013D00000F08EFD00B106462088000406D555F8C1
:1013E000880F616D20F0804008432860304600F08F
:1013F00005B80000001002400070004018BCBDE8B5
:10140000E08F00002DE9F0470F46050058D0404E10
:10141000306800F00700B84209D2306820F00700B9
:1014200038433060306800F00700B84248D128786F
:10143000384CC0072CD06868032811D0022812D07D
:10144000216898B1490500293ADAA16821F0030121
:101450000143A160FFF7B4FD804641F2883910E0F6
:1014600021688901EFE721688903ECE78907EAE74A
:10147000FFF7A6FDA0EB0801494502D90320BDE80E
:10148000F087A068696800F00C00B0EB810FEFD125
:101490002878800705D5A068A96820F0F0000843E7
:1014A000A060306800F00700B8420BD9306820F027
:1014B000070038433060306800F00700B84201D0C0
:1014C0000120DCE72878400705D5A068E96820F40A
:1014D000E0600843A0602878000706D5A068296965
:1014E00020F4605040EAC100A06000F03FF8A1681D
:1014F000094AC1F30311515C01F01F01C8400749BB
:10150000086007480068BDE8F047FFF777BD0000B6
:10151000002002400010024028260008140000208D
:101520000C0000200548064900688968054AC1F397
:101530000221515C01F01F01C840704714000020D7
:1015400000100240682600080548064900688968BE
:10155000054AC1F3C221515C01F01F01C840704728
:1015600014000020001002406826000870B52549CC
:10157000002318468A68CC6812F00C0204F00306B7
:10158000214C4FEA640509D00C2A05D0042A32D038
:10159000082A00D1284670BD012E10D10B681B0708
:1015A00004D4D1F89430C3F3032302E00B68C3F3EF
:1015B0000313164E56F82330DAB10C2AEBD1C86863
:1015C00000F00300022818D0032818D01846CA6873
:1015D000CB68C2F30212C3F306234343521CB3FB8E
:1015E000F2F2C868C0F34160401C4000B2FBF0F06A
:1015F00070BD184670BD204670BD2046E7E72846FE
:10160000E5E70000001002400024F400382600083E
:101610002DE9F84304006FD0FE4DA86800F00C06D9
:10162000E86800F003072078C00664D576B10C2E78
:1016300001D1012F0AD0A069002828687AD040F093
:1016400001002860FFF7BCFC80465DE02868800749
:1016500002D5A0690028DED0216A2868000703D5DA
:10166000286800F0F00004E0D5F89400F02202EAC7
:101670001010814216D9084600F0D0FC00283BD15A
:10168000286840F0080028602868216A20F0F000EF
:10169000084328606868E16920F47F4040EA01203F
:1016A000686016E0286840F0080028602868216A11
:1016B00020F0F000084328606868E16920F47F406A
:1016C00040EA0120686026B9206A00F0A7FC0028E3
:1016D000D5D1FFF74BFFA968CF4AC1F30311515C85
:1016E00001F01F01C840CD490860CD480068FFF7F0
:1016F00085FC00287ED12EE0CAE000BFFFF760FC29
:10170000A0EB0800022876D828688007F6D528685C
:1017100040F0080028602868216A20F0F0000843A3
:1017200028606868E16920F47F4040EA0120686031
:1017300011E0FFE720F001002860FFF741FC804640
:1017400006E000BFFFF73CFCA0EB08000228DAD857
:1017500028688007F6D42078C00740D0082E18D01B
:101760000C2E01D1032F14D06068B0F5803F17D044
:10177000B0F5A02F286817D020F4803028602868A2
:1017800020F4802028606068E0B1FFF719FC8046F3
:1017900014E02868800322D56068002878D01EE015
:1017A000286840F48030EDE740F480202860F7E7B7
:1017B000FFF706FCA0EB08006428A4D82868800383
:1017C000F6D50CE0FFF7FCFB804605E0FFF7F8FBE1
:1017D000A0EB0800642896D828688003F6D4207807
:1017E00080073BD5042E11D00C2E01D1022F0DD035
:1017F000E06801E0B6E1FFE0002828681ED040F470
:1018000080702860FFF7DCFB07460CE02868400585
:101810000CD5E0680028C1D008E000BFFFF7D0FB7E
:10182000C01B022893D828684005F7D56868217C3A
:1018300020F0F85040EA016068600FE020F480700A
:101840002860FFF7BDFB074605E000BFFFF7B8FBC8
:10185000C01B0228B1D828684005F7D420780007BB
:1018600029D560690028D5F8940012D040F0010015
:10187000C5F89400FFF7A4FB074604E0FFF7A0FBC0
:10188000C01B022899D8D5F894008007F6D512E03D
:101890002BE120F00100C5F89400FFF791FB07460B
:1018A00005E000BFFFF78CFBC01B022885D8D5F8E8
:1018B00094008007F6D42078400766D5A86D0027ED
:1018C000C00008D4A86D40F08050A865A86D01271D
:1018D00000F08050009053480168C90512D4016897
:1018E000814641F480710160FFF76AFB804605E0A4
:1018F000FFF766FBA0EB080002287DD8D9F80000AE
:10190000C005F5D5A068012816D00528D5F89000A7
:1019100017D020F00100C5F89000D5F8900020F015
:10192000040000BFC5F89000A06841F28839C0B13A
:10193000FFF746FB80460FE0D5F8900040F001002D
:10194000F0E740F00400C5F89000F5E7FFF738FB3A
:10195000A0EB080149454FD8D5F890008007F5D590
:101960000EE0FFF72DFB804606E000BFFFF728FBE7
:10197000A0EB080149453FD8D5F890008007F5D481
:101980001FB1A86D20F08050A8652078800628D56A
:10199000606A0028D5F8980012D040F00100C5F820
:1019A0009800FFF70DFB074605E000BFFFF708FBB7
:1019B000C01B022820D8D5F898008007F6D510E083
:1019C00020F00100C5F89800FFF7FAFA074604E096
:1019D000FFF7F6FAC01B02280ED8D5F8980080074A
:1019E000F6D4A06AA8B1022824D00C2E7DD0286895
:1019F00020F08070286000E0B3E02868000103D484
:101A0000E86820F00300E860E86807490840E860FB
:101A10000CE09FE00010024028260008140000207F
:101A20000C00002000700040FFFFEEFEFFF7C8FA38
:101A3000044699E0E868E26A00F00301914226D189
:101A4000216B00F070020901103991421FD1626BC5
:101A500000F4FE41B1EB022F19D194F8382000F0C8
:101A60007841B1EBC26F12D1A18F00F4C0024908D6
:101A70004905A1F50011914209D194F8401000F0F8
:101A8000C06049084906A1F1007181424BD00C2E7B
:101A90006FD0286840016CD4286820F080702860DE
:101AA000FFF78EFA064604E0FFF78AFA801B022849
:101AB00057D828688001F7D4F4E90B016FF00F02C2
:101AC00002EB01110843218A5204490802EB4151FB
:101AD000A26841EA02210843217D4FF07E42490875
:101AE00002EB41610843217B00E042E040EAC16033
:101AF000E968214A11400843E860286840F0807096
:101B00002860E86840F08070E860FFF759FA044602
:101B100005E000BFFFF754FA001B022821D828680F
:101B20008001F7D523E02868800120D4286840F0A0
:101B300080702860E86840F08070E860FFF740FA45
:101B4000044604E0FFF73CFA001B022809D8286885
:101B50008001F7D50BE000BFFFF732FA001B022827
:101B600002D90320BDE8F88328688001F4D400205E
:101B7000F8E70120F6E700008C809D0110B5401EBB
:101B8000B0F1807F01D3012010BD4FF0E0246061EF
:101B90000F21601700F0E1FC0020A0610720206108
:101BA000002010BD10B5040002D0A06F10B107E0F6
:101BB000012010BD002084F87400204600F026F8B3
:101BC0002420A0672068016821F0010101602046FF
:101BD00000F070FB0128ECD0606A10B1204600F0E4
:101BE000D7FA2068416821F49041416020688168FB
:101BF00021F02A0181602068016841F00101016043
:101C00002046BDE8104000F027BB000010B586B0AC
:101C1000044614216846FEF712FB134920688842E7
:101C200020D11248016E41F480410166016E01F439
:101C300080410591C16C41F00101C164C06C6946ED
:101C400000F0010005904FF4C06000900220019068
:101C50000020029003200390072004904FF0904052
:101C6000FFF7CAF806B010BD00380140001002406E
:101C70002DE9F8430446806F1F4616460D4620287E
:101C80004FD1CDB1C6B194F87400012849D00120DC
:101C900084F874004FF00008C4F880802120A06709
:101CA000FFF78EF9A4F850608146A4F85260A0684E
:101CB000B0F5805F03D004E00120BDE8F88320691F
:101CC00028B12E465FF0000584F8748010E00026ED
:101CD000FAE78021204600F0EDFBB8B9C6B116F84E
:101CE000010B21680885B4F85200401EA4F8520088
:101CF000B4F852004B464FF0000200970028E8D19C
:101D00004FF04001204600F0D5FB30B10320D4E76E
:101D100035F8020BC0F30800E3E72020A06700209D
:101D2000CBE70220C9E7FEE700EB8100006E00F080
:101D3000F84070478068C0F3C00070478068C0F307
:101D400080007047C06810F4406F01D000207047D9
:101D500001207047042303EAD15310B518444369A6
:101D6000C1F3045107248C40A3438A4013434361C9
:101D700010BD00EB8100016E21F0004111430166AE
:101D80007047000010B586B018216846FEF757FA74
:101D9000184817490024C0E9001484600821C46071
:101DA000C0E90441047601214176C16180F82040F8
:101DB0008462C46280F83010446380F83840FEF7D3
:101DC00099FD08B1FEF750FB0B4800900620CDE9C5
:101DD00001047F2003900420CDE9040469460548EE
:101DE000FEF78CFB002801D0FEF73EFB06B010BDCD
:101DF00000000450380000202000F014054808B509
:101E0000816C41F001018164806C00F00100009060
:101E100008BD0000001002402DE9F04186B01421F9
:101E20006846FEF70CFA1F48C16C41F08001C1649E
:101E3000C16C01F080010591C16C41F00101C164E8
:101E4000C16C01F001010591C16C41F00201C16456
:101E5000C06C4FF0904700F00200059000228021F6
:101E60003846FFF7A8F8DFF840804FF4807600226C
:101E700031464046FFF79FF880200090012500245E
:101E8000CDE90154694638460394FEF7B5FF009644
:101E9000CDE90154694640460394FEF7ADFF06B014
:101EA000BDE8F08100100240000400480D4810B564
:101EB0000B4901604FF4E1314160002181600C2247
:101EC000C160C0E904128161C16101624162FFF732
:101ED00069FE002803D0BDE81040FEF7C5BA10BD6A
:101EE00000380140E4000020FEE7FEE770470000F4
:101EF0002DE9F041444C05468846E06800268107FC
:101F000028680DD0E16801F00301814216D1A8B123
:101F1000E0686968C0F30210401C88420ED120E0DE
:101F2000012804D0022805D0032807D108E0216841
:101F3000890701E021684905002907DB01265FE0E8
:101F40002168890302D421684903F5E7E1686A68DA
:101F50006FF00F0321F0730103EB021211430143F1
:101F6000E160206820F080602060FFF729F80746D4
:101F700005E000BFFFF724F8C01B022837D820680F
:101F80000001F7D4B8F1000F18D0B8F1010F1DD03F
:101F9000287D4FF07E41400801EB4060A96840EA8F
:101FA00001202169194A114008432061206840F04E
:101FB00080602060FFF704F807461AE0A868297BD4
:101FC000000240EAC1602169114AECE7288A114900
:101FD000400801EB4050A96840EA012021690E4AFF
:101FE000E1E700BFFEF7ECFFC01B022801D9032682
:101FF00006E020680001F5D52069A9690843206141
:102000003046BDE8F081000000100240FF80FFF97B
:10201000FF80FF070000E0FFFF809FFFF8B51C4D29
:1020200006460024A86DC00002D5FFF785F80DE034
:10203000A86D40F08050A865A86D00F08050009019
:10204000FFF77AF8A96D21F08051A965B0F5007FFE
:1020500004D0802E07D94FF003040AE0802E08D95F
:10206000A02E01D804E001D1022402E0702E00D19C
:1020700001240848016821F007012143016000683C
:1020800000F00700A04201D00120F8BD0020F8BDFB
:1020900000100240002002407047FEF797BF2DE974
:1020A000F041AEB0442117A8FEF7C9F8142128A8C2
:1020B000FEF7C5F85C216846FEF7C1F80125280443
:1020C000CDE9175002240326CDE921460727CDE9A3
:1020D000257414202794CDE9235017A8FFF798FA08
:1020E00008B172B6FEE70F204FF00008CDE92806D0
:1020F000CDF8A880CDF8AC80042128A8CDF8B08018
:10210000FFF780F908B172B6FEE744F201000090D3
:1021100000071490CDF820800820CDE902500196E8
:102120004005CDE90640CDE904746846FFF70CF898
:1021300008B172B6FEE74FF40070FEF7C9FF002841
:1021400001D072B6FEE72EB0BDE8F0810D480168FF
:1021500041F4700101600C48016841F00101016027
:10216000002181600268094B1A4002608214C2603B
:10217000026822F48022026081610249C003803932
:102180000860704788ED00E000100240FFFFF6EAAB
:1021900090F82410C90706D001684A68836A22F4BF
:1021A00000321A434A6090F82410890706D5016866
:1021B0004A68C36A22F480321A434A6090F82410B5
:1021C000490706D501684A68036B22F480221A4346
:1021D0004A6090F82410090706D501684A68436BE5
:1021E00022F400421A434A6090F82410C90606D52A
:1021F00001688A68836B22F480521A438A6090F8DF
:102200002410890606D501688A68C36B22F400523F
:102210001A438A6090F82410490611D501684A686B
:10222000036C22F480121A434A60016CB1F5801FDE
:1022300006D101684A68436C22F4C0021A434A601E
:1022400090F82410090606D501684A68806C22F4CB
:10225000002202434A607047F8B500260446C0F8E1
:102260008060FEF7ADFE0546206800686FF07E478F
:10227000000708D52B4600224FF400112046009796
:1022800000F018F960B92068006840070AD52B46AD
:1022900000224FF480012046009700F00BF908B1AE
:1022A0000320F8BD2020A067E067266684F87460EC
:1022B0000020F8BD2DE9F0410446016880682269DC
:1022C000E3691043626900251A431043714F0A689D
:1022D000714B1A4002430A6020684168E26821F4A9
:1022E0004051114341602168A069B94201D0226A7E
:1022F00010438A6822F4306202438A606749236887
:1023000067488B420DD1D0F8880010F0030006D04A
:10231000012847D0022843D0032830D144E00121CE
:102320002EE060498B420BD1D0F8880010F00C00F1
:1023300034D0042836D0082832D00C281FD133E0FE
:1023400059498B420BD1D0F8880010F0300025D0CD
:10235000102827D0202823D0302810D124E0BB42D9
:102360000DD1D0F8880010F4406017D0B0F5806F20
:1023700018D0B0F5006F13D0B0F5406F14D0102115
:102380004A4A00264FF40040BB422DD171B10229C8
:102390000FD004290FD0082972D10FE00021EFE7F8
:1023A0000221EDE70421EBE70821E9E7FFF7BAF89E
:1023B00003E0104602E0FFF7D9F8E0B3626802EBF1
:1023C000420181425CD8B0EB023F59D8010E0302B2
:1023D0005008181871410023FDF7F6FE344AA0F5A5
:1023E000407191424ED94BE0E3694FF6EF7783425B
:1023F00028D1092944D2DFE801F005080B430D4339
:1024000043431000FFF78EF806E0FFF79DF803E066
:10241000104602E0FFF7AAF868B14100606801EBDE
:102420005001B1FBF0F081B2A1F11000B84227D801
:102430004FF6F07200E027E001EA0200C1F342012A
:1024400008431FE009291BD2DFE801F005080B1A39
:102450000D1A1A1A1000FFF765F806E0FFF774F876
:1024600003E0104602E0FFF781F868B1616800EB15
:102470005100B0FBF1F080B2A0F11001B94201D9D6
:10248000012501E02168C86066662846A666BDE8A9
:10249000F081000000800040F369FFEF0038014048
:1024A0000010024000440040004800400024F400B6
:1024B000FFFC0F002DE9F0479A4617460E460446EA
:1024C0004FF000094FF02008089D39E0681C37D014
:1024D000FEF776FDA0EB0A00A84222D80DB32068D3
:1024E000016849072CD5C069C043000528D421687C
:1024F0004FF4006008622068016821F4D071016027
:102500002068816821F001018160C4F87880C4F8F6
:102510007C80C4F8808000BF84F874900320BDE8FC
:10252000F0872068016821F4D0710160206881681B
:1025300021F001018160C4F87880C4F87C80EBE769
:102540002068C06936EA000004D00020B842BDD03F
:102550000020E4E70120F9E7FEE70907090E00285B
:1025600004DB00F1E02080F80014704700F00F0059
:1025700000F1E02080F8141D704702E008C8121F27
:1025800008C1002AFAD170477047002001E001C15C
:10259000121F002AFBD17047FEF720FDFFF77FFDD9
:1025A000FFF73AFCFFF72AFCFFF780FCFFF7EAFB96
:1025B0007F211848FDF75AFF012217491548FEF7F9
:1025C000B9FA164E4FF090444FF480754FF4FA77F5
:1025D0006423082212491348FFF74AFB0022802196
:1025E0002046FEF7E8FC002229463046FEF7E3FCD1
:1025F0003846FEF7EFFB012280212046FEF7DBFC88
:10260000012229463046FEF7D6FC3846FEF7E2FBAB
:10261000DEE7000038000020180000200004004819
:1026200000000020E4000020000000000000000086
:102630000102030406070809A0860100400D0300FB
:10264000801A060000350C0040420F0080841E00F6
:1026500000093D0000127A000024F40000366E01EB
:102660000048E801006CDC020000000001020304E5
:102670009026000800000020180000007A250008BD
:10268000A826000818000020500500008A25000830
:102690003132333435363738010000001000000085
:0826A0000000000000093D00EC
:040000050800018D61
:00000001FF
